{
  "_format": "hh-sol-artifact-1",
  "contractName": "Vault",
  "sourceName": "contracts/Vault.sol",
  "abi": [
    {
      "anonymous": false,
      "inputs": [
        {
          "indexed": true,
          "internalType": "address",
          "name": "owner",
          "type": "address"
        },
        {
          "indexed": true,
          "internalType": "address",
          "name": "spender",
          "type": "address"
        },
        {
          "indexed": false,
          "internalType": "uint256",
          "name": "value",
          "type": "uint256"
        }
      ],
      "name": "Approval",
      "type": "event"
    },
    {
      "anonymous": false,
      "inputs": [
        {
          "indexed": true,
          "internalType": "address",
          "name": "sender",
          "type": "address"
        },
        {
          "indexed": true,
          "internalType": "address",
          "name": "owner",
          "type": "address"
        },
        {
          "indexed": false,
          "internalType": "uint256",
          "name": "assets",
          "type": "uint256"
        },
        {
          "indexed": false,
          "internalType": "uint256",
          "name": "shares",
          "type": "uint256"
        }
      ],
      "name": "Deposit",
      "type": "event"
    },
    {
      "anonymous": false,
      "inputs": [
        {
          "indexed": false,
          "internalType": "uint8",
          "name": "version",
          "type": "uint8"
        }
      ],
      "name": "Initialized",
      "type": "event"
    },
    {
      "anonymous": false,
      "inputs": [
        {
          "indexed": true,
          "internalType": "address",
          "name": "user",
          "type": "address"
        },
        {
          "indexed": false,
          "internalType": "uint256",
          "name": "timestamp",
          "type": "uint256"
        },
        {
          "indexed": false,
          "internalType": "string",
          "name": "message",
          "type": "string"
        }
      ],
      "name": "InvestorAdded",
      "type": "event"
    },
    {
      "anonymous": false,
      "inputs": [
        {
          "indexed": true,
          "internalType": "address",
          "name": "investor",
          "type": "address"
        },
        {
          "indexed": true,
          "internalType": "address",
          "name": "receiver",
          "type": "address"
        },
        {
          "indexed": false,
          "internalType": "uint256",
          "name": "assets",
          "type": "uint256"
        },
        {
          "indexed": false,
          "internalType": "uint256",
          "name": "shares",
          "type": "uint256"
        }
      ],
      "name": "InvestorDeposited",
      "type": "event"
    },
    {
      "anonymous": false,
      "inputs": [
        {
          "indexed": true,
          "internalType": "address",
          "name": "investor",
          "type": "address"
        },
        {
          "indexed": true,
          "internalType": "address",
          "name": "receiver",
          "type": "address"
        },
        {
          "indexed": false,
          "internalType": "uint256",
          "name": "assets",
          "type": "uint256"
        },
        {
          "indexed": false,
          "internalType": "uint256",
          "name": "shares",
          "type": "uint256"
        }
      ],
      "name": "InvestorRedeemed",
      "type": "event"
    },
    {
      "anonymous": false,
      "inputs": [
        {
          "indexed": true,
          "internalType": "address",
          "name": "investor",
          "type": "address"
        },
        {
          "indexed": true,
          "internalType": "address",
          "name": "receiver",
          "type": "address"
        },
        {
          "indexed": false,
          "internalType": "uint256",
          "name": "assets",
          "type": "uint256"
        },
        {
          "indexed": false,
          "internalType": "uint256",
          "name": "shares",
          "type": "uint256"
        }
      ],
      "name": "InvestorWithdrawn",
      "type": "event"
    },
    {
      "anonymous": false,
      "inputs": [
        {
          "indexed": true,
          "internalType": "address",
          "name": "originator",
          "type": "address"
        },
        {
          "indexed": true,
          "internalType": "address",
          "name": "borrower",
          "type": "address"
        },
        {
          "indexed": false,
          "internalType": "uint256",
          "name": "assets",
          "type": "uint256"
        }
      ],
      "name": "LoanFunded",
      "type": "event"
    },
    {
      "anonymous": false,
      "inputs": [
        {
          "indexed": true,
          "internalType": "address",
          "name": "originator",
          "type": "address"
        },
        {
          "indexed": true,
          "internalType": "address",
          "name": "borrower",
          "type": "address"
        },
        {
          "indexed": false,
          "internalType": "uint256",
          "name": "assets",
          "type": "uint256"
        }
      ],
      "name": "LoanRepaid",
      "type": "event"
    },
    {
      "anonymous": false,
      "inputs": [
        {
          "indexed": true,
          "internalType": "address",
          "name": "user",
          "type": "address"
        },
        {
          "indexed": false,
          "internalType": "uint256",
          "name": "timestamp",
          "type": "uint256"
        },
        {
          "indexed": false,
          "internalType": "string",
          "name": "message",
          "type": "string"
        }
      ],
      "name": "OriginatorAdded",
      "type": "event"
    },
    {
      "anonymous": false,
      "inputs": [
        {
          "indexed": true,
          "internalType": "bytes32",
          "name": "role",
          "type": "bytes32"
        },
        {
          "indexed": true,
          "internalType": "bytes32",
          "name": "previousAdminRole",
          "type": "bytes32"
        },
        {
          "indexed": true,
          "internalType": "bytes32",
          "name": "newAdminRole",
          "type": "bytes32"
        }
      ],
      "name": "RoleAdminChanged",
      "type": "event"
    },
    {
      "anonymous": false,
      "inputs": [
        {
          "indexed": true,
          "internalType": "bytes32",
          "name": "role",
          "type": "bytes32"
        },
        {
          "indexed": true,
          "internalType": "address",
          "name": "account",
          "type": "address"
        },
        {
          "indexed": true,
          "internalType": "address",
          "name": "sender",
          "type": "address"
        }
      ],
      "name": "RoleGranted",
      "type": "event"
    },
    {
      "anonymous": false,
      "inputs": [
        {
          "indexed": true,
          "internalType": "bytes32",
          "name": "role",
          "type": "bytes32"
        },
        {
          "indexed": true,
          "internalType": "address",
          "name": "account",
          "type": "address"
        },
        {
          "indexed": true,
          "internalType": "address",
          "name": "sender",
          "type": "address"
        }
      ],
      "name": "RoleRevoked",
      "type": "event"
    },
    {
      "anonymous": false,
      "inputs": [
        {
          "indexed": true,
          "internalType": "address",
          "name": "from",
          "type": "address"
        },
        {
          "indexed": true,
          "internalType": "address",
          "name": "to",
          "type": "address"
        },
        {
          "indexed": false,
          "internalType": "uint256",
          "name": "value",
          "type": "uint256"
        }
      ],
      "name": "Transfer",
      "type": "event"
    },
    {
      "anonymous": false,
      "inputs": [
        {
          "indexed": true,
          "internalType": "address",
          "name": "sender",
          "type": "address"
        },
        {
          "indexed": true,
          "internalType": "address",
          "name": "receiver",
          "type": "address"
        },
        {
          "indexed": true,
          "internalType": "address",
          "name": "owner",
          "type": "address"
        },
        {
          "indexed": false,
          "internalType": "uint256",
          "name": "assets",
          "type": "uint256"
        },
        {
          "indexed": false,
          "internalType": "uint256",
          "name": "shares",
          "type": "uint256"
        }
      ],
      "name": "Withdraw",
      "type": "event"
    },
    {
      "anonymous": false,
      "inputs": [
        {
          "indexed": true,
          "internalType": "address",
          "name": "originator",
          "type": "address"
        },
        {
          "indexed": true,
          "internalType": "address",
          "name": "fromAddress",
          "type": "address"
        },
        {
          "indexed": false,
          "internalType": "uint256",
          "name": "assets",
          "type": "uint256"
        }
      ],
      "name": "YeildDeposited",
      "type": "event"
    },
    {
      "inputs": [],
      "name": "DEFAULT_ADMIN_ROLE",
      "outputs": [
        {
          "internalType": "bytes32",
          "name": "",
          "type": "bytes32"
        }
      ],
      "stateMutability": "view",
      "type": "function"
    },
    {
      "inputs": [],
      "name": "INVESTOR_ROLE",
      "outputs": [
        {
          "internalType": "bytes32",
          "name": "",
          "type": "bytes32"
        }
      ],
      "stateMutability": "view",
      "type": "function"
    },
    {
      "inputs": [],
      "name": "LOAN_MANAGER_ROLE",
      "outputs": [
        {
          "internalType": "bytes32",
          "name": "",
          "type": "bytes32"
        }
      ],
      "stateMutability": "view",
      "type": "function"
    },
    {
      "inputs": [],
      "name": "ORIGINATOR_ROLE",
      "outputs": [
        {
          "internalType": "bytes32",
          "name": "",
          "type": "bytes32"
        }
      ],
      "stateMutability": "view",
      "type": "function"
    },
    {
      "inputs": [
        {
          "internalType": "address",
          "name": "investor",
          "type": "address"
        }
      ],
      "name": "addInvestor",
      "outputs": [],
      "stateMutability": "nonpayable",
      "type": "function"
    },
    {
      "inputs": [
        {
          "internalType": "address",
          "name": "originator",
          "type": "address"
        }
      ],
      "name": "addOriginator",
      "outputs": [],
      "stateMutability": "nonpayable",
      "type": "function"
    },
    {
      "inputs": [
        {
          "internalType": "address",
          "name": "owner",
          "type": "address"
        },
        {
          "internalType": "address",
          "name": "spender",
          "type": "address"
        }
      ],
      "name": "allowance",
      "outputs": [
        {
          "internalType": "uint256",
          "name": "",
          "type": "uint256"
        }
      ],
      "stateMutability": "view",
      "type": "function"
    },
    {
      "inputs": [
        {
          "internalType": "address",
          "name": "spender",
          "type": "address"
        },
        {
          "internalType": "uint256",
          "name": "amount",
          "type": "uint256"
        }
      ],
      "name": "approve",
      "outputs": [
        {
          "internalType": "bool",
          "name": "",
          "type": "bool"
        }
      ],
      "stateMutability": "nonpayable",
      "type": "function"
    },
    {
      "inputs": [],
      "name": "asset",
      "outputs": [
        {
          "internalType": "address",
          "name": "",
          "type": "address"
        }
      ],
      "stateMutability": "view",
      "type": "function"
    },
    {
      "inputs": [
        {
          "internalType": "address",
          "name": "account",
          "type": "address"
        }
      ],
      "name": "balanceOf",
      "outputs": [
        {
          "internalType": "uint256",
          "name": "",
          "type": "uint256"
        }
      ],
      "stateMutability": "view",
      "type": "function"
    },
    {
      "inputs": [
        {
          "internalType": "uint256",
          "name": "shares",
          "type": "uint256"
        }
      ],
      "name": "convertToAssets",
      "outputs": [
        {
          "internalType": "uint256",
          "name": "",
          "type": "uint256"
        }
      ],
      "stateMutability": "view",
      "type": "function"
    },
    {
      "inputs": [
        {
          "internalType": "uint256",
          "name": "assets",
          "type": "uint256"
        }
      ],
      "name": "convertToShares",
      "outputs": [
        {
          "internalType": "uint256",
          "name": "",
          "type": "uint256"
        }
      ],
      "stateMutability": "view",
      "type": "function"
    },
    {
      "inputs": [],
      "name": "decimals",
      "outputs": [
        {
          "internalType": "uint8",
          "name": "",
          "type": "uint8"
        }
      ],
      "stateMutability": "view",
      "type": "function"
    },
    {
      "inputs": [
        {
          "internalType": "address",
          "name": "spender",
          "type": "address"
        },
        {
          "internalType": "uint256",
          "name": "subtractedValue",
          "type": "uint256"
        }
      ],
      "name": "decreaseAllowance",
      "outputs": [
        {
          "internalType": "bool",
          "name": "",
          "type": "bool"
        }
      ],
      "stateMutability": "nonpayable",
      "type": "function"
    },
    {
      "inputs": [
        {
          "internalType": "uint256",
          "name": "assets",
          "type": "uint256"
        },
        {
          "internalType": "address",
          "name": "receiver",
          "type": "address"
        }
      ],
      "name": "deposit",
      "outputs": [
        {
          "internalType": "uint256",
          "name": "",
          "type": "uint256"
        }
      ],
      "stateMutability": "nonpayable",
      "type": "function"
    },
    {
      "inputs": [
        {
          "internalType": "address",
          "name": "caller",
          "type": "address"
        },
        {
          "internalType": "uint256",
          "name": "assets",
          "type": "uint256"
        }
      ],
      "name": "depositYield",
      "outputs": [],
      "stateMutability": "nonpayable",
      "type": "function"
    },
    {
      "inputs": [
        {
          "internalType": "address",
          "name": "caller",
          "type": "address"
        },
        {
          "internalType": "uint256",
          "name": "assets",
          "type": "uint256"
        }
      ],
      "name": "fundLoan",
      "outputs": [],
      "stateMutability": "nonpayable",
      "type": "function"
    },
    {
      "inputs": [],
      "name": "getExchangeRate",
      "outputs": [
        {
          "internalType": "uint256",
          "name": "",
          "type": "uint256"
        }
      ],
      "stateMutability": "view",
      "type": "function"
    },
    {
      "inputs": [
        {
          "internalType": "bytes32",
          "name": "role",
          "type": "bytes32"
        }
      ],
      "name": "getRoleAdmin",
      "outputs": [
        {
          "internalType": "bytes32",
          "name": "",
          "type": "bytes32"
        }
      ],
      "stateMutability": "view",
      "type": "function"
    },
    {
      "inputs": [
        {
          "internalType": "bytes32",
          "name": "role",
          "type": "bytes32"
        },
        {
          "internalType": "address",
          "name": "account",
          "type": "address"
        }
      ],
      "name": "grantRole",
      "outputs": [],
      "stateMutability": "nonpayable",
      "type": "function"
    },
    {
      "inputs": [
        {
          "internalType": "bytes32",
          "name": "role",
          "type": "bytes32"
        },
        {
          "internalType": "address",
          "name": "account",
          "type": "address"
        }
      ],
      "name": "hasRole",
      "outputs": [
        {
          "internalType": "bool",
          "name": "",
          "type": "bool"
        }
      ],
      "stateMutability": "view",
      "type": "function"
    },
    {
      "inputs": [
        {
          "internalType": "address",
          "name": "spender",
          "type": "address"
        },
        {
          "internalType": "uint256",
          "name": "addedValue",
          "type": "uint256"
        }
      ],
      "name": "increaseAllowance",
      "outputs": [
        {
          "internalType": "bool",
          "name": "",
          "type": "bool"
        }
      ],
      "stateMutability": "nonpayable",
      "type": "function"
    },
    {
      "inputs": [
        {
          "internalType": "contract IERC20Upgradeable",
          "name": "asset",
          "type": "address"
        },
        {
          "internalType": "string",
          "name": "_name",
          "type": "string"
        },
        {
          "internalType": "string",
          "name": "_symbol",
          "type": "string"
        },
        {
          "internalType": "address",
          "name": "admin",
          "type": "address"
        }
      ],
      "name": "initialize",
      "outputs": [],
      "stateMutability": "nonpayable",
      "type": "function"
    },
    {
      "inputs": [
        {
          "internalType": "address",
          "name": "",
          "type": "address"
        }
      ],
      "name": "maxDeposit",
      "outputs": [
        {
          "internalType": "uint256",
          "name": "",
          "type": "uint256"
        }
      ],
      "stateMutability": "view",
      "type": "function"
    },
    {
      "inputs": [
        {
          "internalType": "address",
          "name": "",
          "type": "address"
        }
      ],
      "name": "maxMint",
      "outputs": [
        {
          "internalType": "uint256",
          "name": "",
          "type": "uint256"
        }
      ],
      "stateMutability": "view",
      "type": "function"
    },
    {
      "inputs": [
        {
          "internalType": "address",
          "name": "owner",
          "type": "address"
        }
      ],
      "name": "maxRedeem",
      "outputs": [
        {
          "internalType": "uint256",
          "name": "",
          "type": "uint256"
        }
      ],
      "stateMutability": "view",
      "type": "function"
    },
    {
      "inputs": [
        {
          "internalType": "address",
          "name": "owner",
          "type": "address"
        }
      ],
      "name": "maxWithdraw",
      "outputs": [
        {
          "internalType": "uint256",
          "name": "",
          "type": "uint256"
        }
      ],
      "stateMutability": "view",
      "type": "function"
    },
    {
      "inputs": [
        {
          "internalType": "uint256",
          "name": "shares",
          "type": "uint256"
        },
        {
          "internalType": "address",
          "name": "receiver",
          "type": "address"
        }
      ],
      "name": "mint",
      "outputs": [
        {
          "internalType": "uint256",
          "name": "",
          "type": "uint256"
        }
      ],
      "stateMutability": "nonpayable",
      "type": "function"
    },
    {
      "inputs": [],
      "name": "name",
      "outputs": [
        {
          "internalType": "string",
          "name": "",
          "type": "string"
        }
      ],
      "stateMutability": "view",
      "type": "function"
    },
    {
      "inputs": [
        {
          "internalType": "uint256",
          "name": "assets",
          "type": "uint256"
        }
      ],
      "name": "previewDeposit",
      "outputs": [
        {
          "internalType": "uint256",
          "name": "",
          "type": "uint256"
        }
      ],
      "stateMutability": "view",
      "type": "function"
    },
    {
      "inputs": [
        {
          "internalType": "uint256",
          "name": "shares",
          "type": "uint256"
        }
      ],
      "name": "previewMint",
      "outputs": [
        {
          "internalType": "uint256",
          "name": "",
          "type": "uint256"
        }
      ],
      "stateMutability": "view",
      "type": "function"
    },
    {
      "inputs": [
        {
          "internalType": "uint256",
          "name": "shares",
          "type": "uint256"
        }
      ],
      "name": "previewRedeem",
      "outputs": [
        {
          "internalType": "uint256",
          "name": "",
          "type": "uint256"
        }
      ],
      "stateMutability": "view",
      "type": "function"
    },
    {
      "inputs": [
        {
          "internalType": "uint256",
          "name": "assets",
          "type": "uint256"
        }
      ],
      "name": "previewWithdraw",
      "outputs": [
        {
          "internalType": "uint256",
          "name": "",
          "type": "uint256"
        }
      ],
      "stateMutability": "view",
      "type": "function"
    },
    {
      "inputs": [
        {
          "internalType": "uint256",
          "name": "shares",
          "type": "uint256"
        },
        {
          "internalType": "address",
          "name": "receiver",
          "type": "address"
        },
        {
          "internalType": "address",
          "name": "owner",
          "type": "address"
        }
      ],
      "name": "redeem",
      "outputs": [
        {
          "internalType": "uint256",
          "name": "",
          "type": "uint256"
        }
      ],
      "stateMutability": "nonpayable",
      "type": "function"
    },
    {
      "inputs": [
        {
          "internalType": "bytes32",
          "name": "role",
          "type": "bytes32"
        },
        {
          "internalType": "address",
          "name": "account",
          "type": "address"
        }
      ],
      "name": "renounceRole",
      "outputs": [],
      "stateMutability": "nonpayable",
      "type": "function"
    },
    {
      "inputs": [
        {
          "internalType": "address",
          "name": "caller",
          "type": "address"
        },
        {
          "internalType": "uint256",
          "name": "assets",
          "type": "uint256"
        }
      ],
      "name": "repayLoan",
      "outputs": [],
      "stateMutability": "nonpayable",
      "type": "function"
    },
    {
      "inputs": [
        {
          "internalType": "bytes32",
          "name": "role",
          "type": "bytes32"
        },
        {
          "internalType": "address",
          "name": "account",
          "type": "address"
        }
      ],
      "name": "revokeRole",
      "outputs": [],
      "stateMutability": "nonpayable",
      "type": "function"
    },
    {
      "inputs": [
        {
          "internalType": "bytes4",
          "name": "interfaceId",
          "type": "bytes4"
        }
      ],
      "name": "supportsInterface",
      "outputs": [
        {
          "internalType": "bool",
          "name": "",
          "type": "bool"
        }
      ],
      "stateMutability": "view",
      "type": "function"
    },
    {
      "inputs": [],
      "name": "symbol",
      "outputs": [
        {
          "internalType": "string",
          "name": "",
          "type": "string"
        }
      ],
      "stateMutability": "view",
      "type": "function"
    },
    {
      "inputs": [],
      "name": "totalAssets",
      "outputs": [
        {
          "internalType": "uint256",
          "name": "",
          "type": "uint256"
        }
      ],
      "stateMutability": "view",
      "type": "function"
    },
    {
      "inputs": [],
      "name": "totalSupply",
      "outputs": [
        {
          "internalType": "uint256",
          "name": "",
          "type": "uint256"
        }
      ],
      "stateMutability": "view",
      "type": "function"
    },
    {
      "inputs": [
        {
          "internalType": "address",
          "name": "to",
          "type": "address"
        },
        {
          "internalType": "uint256",
          "name": "amount",
          "type": "uint256"
        }
      ],
      "name": "transfer",
      "outputs": [
        {
          "internalType": "bool",
          "name": "",
          "type": "bool"
        }
      ],
      "stateMutability": "nonpayable",
      "type": "function"
    },
    {
      "inputs": [
        {
          "internalType": "address",
          "name": "from",
          "type": "address"
        },
        {
          "internalType": "address",
          "name": "to",
          "type": "address"
        },
        {
          "internalType": "uint256",
          "name": "amount",
          "type": "uint256"
        }
      ],
      "name": "transferFrom",
      "outputs": [
        {
          "internalType": "bool",
          "name": "",
          "type": "bool"
        }
      ],
      "stateMutability": "nonpayable",
      "type": "function"
    },
    {
      "inputs": [
        {
          "internalType": "uint256",
          "name": "assets",
          "type": "uint256"
        },
        {
          "internalType": "address",
          "name": "receiver",
          "type": "address"
        },
        {
          "internalType": "address",
          "name": "owner",
          "type": "address"
        }
      ],
      "name": "withdraw",
      "outputs": [
        {
          "internalType": "uint256",
          "name": "",
          "type": "uint256"
        }
      ],
      "stateMutability": "nonpayable",
      "type": "function"
    }
  ],
  "bytecode": "0x608060405234801561001057600080fd5b50612910806100206000396000f3fe608060405234801561001057600080fd5b50600436106102745760003560e01c806391d1485411610151578063c63d75b6116100c3578063d905777e11610087578063d905777e1461056f578063dd62ed3e14610582578063e641bde114610595578063e6aa216c146105a8578063e920b1e1146105b0578063ef8b30f71461052357600080fd5b8063c63d75b6146103c6578063c6e6f59214610523578063ce96cb7714610536578063d547741f14610549578063d69961851461055c57600080fd5b8063a217fddf11610115578063a217fddf146104bc578063a457c2d7146104c4578063a9059cbb146104d7578063b3d7f6b9146104ea578063b460af94146104fd578063ba0876521461051057600080fd5b806391d148541461046657806393a595f51461047957806394bf804d1461048c57806395d89b411461049f578063a125142b146104a757600080fd5b8063313ce567116101ea5780634cdad506116101ae5780634cdad506146102cc578063525b9fde146103db578063613d25bb146104025780636e553f651461041557806370a082311461042857806376082a5e1461045157600080fd5b8063313ce5671461036b57806336568abe1461038557806338d52e0f1461039857806339509351146103b3578063402d267d146103c657600080fd5b80630a28a4771161023c5780630a28a477146102f257806318160ddd1461030557806319d349e11461030d57806323b872dd14610322578063248a9ca3146103355780632f2ff15d1461035857600080fd5b806301e1d1141461027957806301ffc9a71461029457806306fdde03146102b757806307a2d13a146102cc578063095ea7b3146102df575b600080fd5b6102816105c3565b6040519081526020015b60405180910390f35b6102a76102a236600461215c565b610635565b604051901515815260200161028b565b6102bf61066c565b60405161028b91906121aa565b6102816102da3660046121dd565b6106fe565b6102a76102ed36600461220b565b61070b565b6102816103003660046121dd565b610723565b603554610281565b61032061031b366004612237565b610730565b005b6102a7610330366004612254565b6107c2565b6102816103433660046121dd565b600090815260c9602052604090206001015490565b610320610366366004612295565b6107e8565b610373610812565b60405160ff909116815260200161028b565b610320610393366004612295565b61082c565b6065546040516001600160a01b03909116815260200161028b565b6102a76103c136600461220b565b6108af565b6102816103d4366004612237565b5060001990565b6102817fa03a3445a42c88c4c71fab3b69391367d1386136663ed015f42f4322182d454781565b610320610410366004612368565b6108d1565b610281610423366004612295565b610a04565b610281610436366004612237565b6001600160a01b031660009081526033602052604090205490565b61028160008051602061289b83398151915281565b6102a7610474366004612295565b610ab5565b61032061048736600461220b565b610ae0565b61028161049a366004612295565b610b61565b6102bf610b7b565b6102816000805160206128bb83398151915281565b610281600081565b6102a76104d236600461220b565b610b8a565b6102a76104e536600461220b565b610c10565b6102816104f83660046121dd565b610c1e565b61028161050b3660046123f1565b610c2b565b61028161051e3660046123f1565b610d37565b6102816105313660046121dd565b610e36565b610281610544366004612237565b610e43565b610320610557366004612295565b610e67565b61032061056a36600461220b565b610e8c565b61028161057d366004612237565b610f10565b610281610590366004612433565b610f2e565b6103206105a3366004612237565b610f59565b610281610fdd565b6103206105be36600461220b565b611002565b6065546040516370a0823160e01b81523060048201526000916001600160a01b0316906370a0823190602401602060405180830381865afa15801561060c573d6000803e3d6000fd5b505050506040513d601f19601f820116820180604052508101906106309190612461565b905090565b60006001600160e01b03198216637965db0b60e01b148061066657506301ffc9a760e01b6001600160e01b03198316145b92915050565b60606036805461067b9061247a565b80601f01602080910402602001604051908101604052809291908181526020018280546106a79061247a565b80156106f45780601f106106c9576101008083540402835291602001916106f4565b820191906000526020600020905b8154815290600101906020018083116106d757829003601f168201915b5050505050905090565b6000610666826000611084565b6000336107198185856110ba565b5060019392505050565b60006106668260016111de565b600061073b81611209565b6107536000805160206128bb83398151915283611216565b816001600160a01b03167f84caf48d4368dc5b56de4d150b3ffe0854be1f7dfbc918b5f68cefd4867c326d426040516107b69181526040602082018190526010908201526f13dc9a59da5b985d1bdc88185919195960821b606082015260800190565b60405180910390a25050565b6000336107d085828561129c565b6107db858585611316565b60019150505b9392505050565b600082815260c9602052604090206001015461080381611209565b61080d8383611216565b505050565b6000806065546106309190600160a01b900460ff166124ca565b6001600160a01b03811633146108a15760405162461bcd60e51b815260206004820152602f60248201527f416363657373436f6e74726f6c3a2063616e206f6e6c792072656e6f756e636560448201526e103937b632b9903337b91039b2b63360891b60648201526084015b60405180910390fd5b6108ab82826114c1565b5050565b6000336107198185856108c28383610f2e565b6108cc91906124e3565b6110ba565b600054610100900460ff16158080156108f15750600054600160ff909116105b8061090b5750303b15801561090b575060005460ff166001145b61096e5760405162461bcd60e51b815260206004820152602e60248201527f496e697469616c697a61626c653a20636f6e747261637420697320616c72656160448201526d191e481a5b9a5d1a585b1a5e995960921b6064820152608401610898565b6000805460ff191660011790558015610991576000805461ff0019166101001790555b610999611528565b6109a38484611551565b6109ac85611582565b6109b7600083611216565b80156109fd576000805461ff0019169055604051600181527f7f26b83ff96e1f2b6a682f133852f6798a09c465da95921460cefb38474024989060200160405180910390a15b5050505050565b600060008051602061289b833981519152610a1e81611209565b6000610a2985610e36565b9050610a37338587846115b2565b8460fb6000828254610a4991906124e3565b925050819055508060fc6000828254610a6291906124e3565b909155505060408051868152602081018390526001600160a01b0386169133917fcca05d7e837d173bf29d3786bf2e3aa7972622ce883c96bfb97d90cdbbbaf908910160405180910390a3949350505050565b600091825260c9602090815260408084206001600160a01b0393909316845291905290205460ff1690565b6000805160206128bb833981519152610af881611209565b6000610b0c6065546001600160a01b031690565b9050610b1a81853086611622565b6040518381526001600160a01b0385169033907ffe3c4f4ff6f11a42f9d84f777002ab405a07fc0075a3504d153b0587f61f460e906020015b60405180910390a350505050565b600080610b6d84610c1e565b90506107e1338483876115b2565b60606037805461067b9061247a565b60003381610b988286610f2e565b905083811015610bf85760405162461bcd60e51b815260206004820152602560248201527f45524332303a2064656372656173656420616c6c6f77616e63652062656c6f77604482015264207a65726f60d81b6064820152608401610898565b610c0582868684036110ba565b506001949350505050565b600033610719818585611316565b6000610666826001611084565b600060008051602061289b833981519152610c4581611209565b610c4e83610e43565b851115610c9d5760405162461bcd60e51b815260206004820152601f60248201527f455243343632363a207769746864726177206d6f7265207468616e206d6178006044820152606401610898565b6000610ca886610723565b9050610cb7338686898561168d565b8560fb6000828254610cc991906124f6565b925050819055508060fc6000828254610ce291906124f6565b909155505060408051878152602081018390526001600160a01b0387169133917fecd90b152e341865701b3f8a65c1cdbe8a0c76ce7948832258f130609c35e99d91015b60405180910390a395945050505050565b600060008051602061289b833981519152610d5181611209565b610d5a83610f10565b851115610da95760405162461bcd60e51b815260206004820152601d60248201527f455243343632363a2072656465656d206d6f7265207468616e206d61780000006044820152606401610898565b6000610db4866106fe565b9050610dc3338686848a61168d565b8060fb6000828254610dd591906124f6565b925050819055508560fc6000828254610dee91906124f6565b909155505060408051828152602081018890526001600160a01b0387169133917fe6fb02e2f3bf7fbc809d37b5c0bfc15b9c6b4493c2c5f4a58026fc206c16d6cb9101610d26565b60006106668260006111de565b6001600160a01b038116600090815260336020526040812054610666906000611084565b600082815260c96020526040902060010154610e8281611209565b61080d83836114c1565b6000805160206128bb833981519152610ea481611209565b8160fb6000828254610eb691906124e3565b90915550506065546001600160a01b0316610ed381853086611622565b6040518381526001600160a01b0385169033907fd07b216914cad58fb6e341a9bedc106c2fbcb914786e1c91286065a3f847593490602001610b53565b6001600160a01b038116600090815260336020526040812054610666565b6001600160a01b03918216600090815260346020908152604080832093909416825291909152205490565b6000610f6481611209565b610f7c60008051602061289b83398151915283611216565b816001600160a01b03167fac7ff9e4a38bec2164d6a1f8ce6002a6abd727321a2bea11825d566713243ce9426040516107b6918152604060208201819052600e908201526d125b9d995cdd1bdc88185919195960921b606082015260800190565b600060fc5460fb54670de0b6b3a7640000610ff89190612509565b6106309190612536565b6000805160206128bb83398151915261101a81611209565b600061102e6065546001600160a01b031690565b905061103b813085611739565b61104781308686611622565b6040518381526001600160a01b0385169033907ff62badb063ea4b26543119fa0f194f8c19665e8c9d635362e24e7681d6cfb6af90602001610b53565b60006107e160fb54600161109891906124e3565b6110a46000600a61263c565b60fc546110b191906124e3565b8591908561184e565b6001600160a01b03831661111c5760405162461bcd60e51b8152602060048201526024808201527f45524332303a20617070726f76652066726f6d20746865207a65726f206164646044820152637265737360e01b6064820152608401610898565b6001600160a01b03821661117d5760405162461bcd60e51b815260206004820152602260248201527f45524332303a20617070726f766520746f20746865207a65726f206164647265604482015261737360f01b6064820152608401610898565b6001600160a01b0383811660008181526034602090815260408083209487168084529482529182902085905590518481527f8c5be1e5ebec7d5bd14f71427d1e84f3dd0314c0f7b2291e5b200ac8c7c3b925910160405180910390a3505050565b60006107e16111ee82600a61263c565b60fc546111fb91906124e3565b60fb546110b19060016124e3565b61121381336118ad565b50565b6112208282610ab5565b6108ab57600082815260c9602090815260408083206001600160a01b03851684529091529020805460ff191660011790556112583390565b6001600160a01b0316816001600160a01b0316837f2f8788117e7eff1d82e926ec794901d17c78024a50270940304540a733656f0d60405160405180910390a45050565b60006112a88484610f2e565b9050600019811461131057818110156113035760405162461bcd60e51b815260206004820152601d60248201527f45524332303a20696e73756666696369656e7420616c6c6f77616e63650000006044820152606401610898565b61131084848484036110ba565b50505050565b6001600160a01b03831661137a5760405162461bcd60e51b815260206004820152602560248201527f45524332303a207472616e736665722066726f6d20746865207a65726f206164604482015264647265737360d81b6064820152608401610898565b6001600160a01b0382166113dc5760405162461bcd60e51b815260206004820152602360248201527f45524332303a207472616e7366657220746f20746865207a65726f206164647260448201526265737360e81b6064820152608401610898565b6001600160a01b038316600090815260336020526040902054818110156114545760405162461bcd60e51b815260206004820152602660248201527f45524332303a207472616e7366657220616d6f756e7420657863656564732062604482015265616c616e636560d01b6064820152608401610898565b6001600160a01b0380851660008181526033602052604080822086860390559286168082529083902080548601905591517fddf252ad1be2c89b69c2b068fc378daa952ba7f163c4a11628f55a4df523b3ef906114b49086815260200190565b60405180910390a3611310565b6114cb8282610ab5565b156108ab57600082815260c9602090815260408083206001600160a01b0385168085529252808320805460ff1916905551339285917ff6391f5c32d9c69d2a47ea670b442974b53935d1edc7fd64eb21e047a839171b9190a45050565b600054610100900460ff1661154f5760405162461bcd60e51b81526004016108989061264b565b565b600054610100900460ff166115785760405162461bcd60e51b81526004016108989061264b565b6108ab8282611906565b600054610100900460ff166115a95760405162461bcd60e51b81526004016108989061264b565b61121381611946565b6065546115ca906001600160a01b0316853085611622565b6115d483826119cb565b826001600160a01b0316846001600160a01b03167fdcbc1c05240f31ff3ad067ef1ee35ce4997762752e3a095284754544f4c709d78484604051610b53929190918252602082015260400190565b6040516001600160a01b03808516602483015283166044820152606481018290526113109085906323b872dd60e01b906084015b60408051601f198184030181529190526020810180516001600160e01b03166001600160e01b031990931692909217909152611a8c565b826001600160a01b0316856001600160a01b0316146116b1576116b183868361129c565b6116bb8382611b61565b6065546116d2906001600160a01b03168584611c95565b826001600160a01b0316846001600160a01b0316866001600160a01b03167ffbde797d201c681b91056529119e0b02407c7bb96a4a2c75c01fc9667232c8db858560405161172a929190918252602082015260400190565b60405180910390a45050505050565b8015806117b35750604051636eb1769f60e11b81523060048201526001600160a01b03838116602483015284169063dd62ed3e90604401602060405180830381865afa15801561178d573d6000803e3d6000fd5b505050506040513d601f19601f820116820180604052508101906117b19190612461565b155b61181e5760405162461bcd60e51b815260206004820152603660248201527f5361666545524332303a20617070726f76652066726f6d206e6f6e2d7a65726f60448201527520746f206e6f6e2d7a65726f20616c6c6f77616e636560501b6064820152608401610898565b6040516001600160a01b03831660248201526044810182905261080d90849063095ea7b360e01b90606401611656565b60008061185c868686611cc5565b9050600183600281111561187257611872612696565b14801561188f57506000848061188a5761188a612520565b868809115b156118a25761189f6001826124e3565b90505b90505b949350505050565b6118b78282610ab5565b6108ab576118c481611daf565b6118cf836020611dc1565b6040516020016118e09291906126ac565b60408051601f198184030181529082905262461bcd60e51b8252610898916004016121aa565b600054610100900460ff1661192d5760405162461bcd60e51b81526004016108989061264b565b6036611939838261276f565b50603761080d828261276f565b600054610100900460ff1661196d5760405162461bcd60e51b81526004016108989061264b565b60008061197983611f5d565b915091508161198957601261198b565b805b606580546001600160a01b039095166001600160a01b031960ff93909316600160a01b02929092166001600160a81b031990951694909417179092555050565b6001600160a01b038216611a215760405162461bcd60e51b815260206004820152601f60248201527f45524332303a206d696e7420746f20746865207a65726f2061646472657373006044820152606401610898565b8060356000828254611a3391906124e3565b90915550506001600160a01b0382166000818152603360209081526040808320805486019055518481527fddf252ad1be2c89b69c2b068fc378daa952ba7f163c4a11628f55a4df523b3ef910160405180910390a35050565b6000611ae1826040518060400160405280602081526020017f5361666545524332303a206c6f772d6c6576656c2063616c6c206661696c6564815250856001600160a01b03166120399092919063ffffffff16565b9050805160001480611b02575080806020019051810190611b02919061282f565b61080d5760405162461bcd60e51b815260206004820152602a60248201527f5361666545524332303a204552433230206f7065726174696f6e20646964206e6044820152691bdd081cdd58d8d9595960b21b6064820152608401610898565b6001600160a01b038216611bc15760405162461bcd60e51b815260206004820152602160248201527f45524332303a206275726e2066726f6d20746865207a65726f206164647265736044820152607360f81b6064820152608401610898565b6001600160a01b03821660009081526033602052604090205481811015611c355760405162461bcd60e51b815260206004820152602260248201527f45524332303a206275726e20616d6f756e7420657863656564732062616c616e604482015261636560f01b6064820152608401610898565b6001600160a01b03831660008181526033602090815260408083208686039055603580548790039055518581529192917fddf252ad1be2c89b69c2b068fc378daa952ba7f163c4a11628f55a4df523b3ef910160405180910390a3505050565b6040516001600160a01b03831660248201526044810182905261080d90849063a9059cbb60e01b90606401611656565b6000808060001985870985870292508281108382030391505080600003611cff57838281611cf557611cf5612520565b04925050506107e1565b808411611d465760405162461bcd60e51b81526020600482015260156024820152744d6174683a206d756c446976206f766572666c6f7760581b6044820152606401610898565b60008486880960026001871981018816978890046003810283188082028403028082028403028082028403028082028403028082028403029081029092039091026000889003889004909101858311909403939093029303949094049190911702949350505050565b60606106666001600160a01b03831660145b60606000611dd0836002612509565b611ddb9060026124e3565b67ffffffffffffffff811115611df357611df36122c5565b6040519080825280601f01601f191660200182016040528015611e1d576020820181803683370190505b509050600360fc1b81600081518110611e3857611e38612851565b60200101906001600160f81b031916908160001a905350600f60fb1b81600181518110611e6757611e67612851565b60200101906001600160f81b031916908160001a9053506000611e8b846002612509565b611e969060016124e3565b90505b6001811115611f0e576f181899199a1a9b1b9c1cb0b131b232b360811b85600f1660108110611eca57611eca612851565b1a60f81b828281518110611ee057611ee0612851565b60200101906001600160f81b031916908160001a90535060049490941c93611f0781612867565b9050611e99565b5083156107e15760405162461bcd60e51b815260206004820181905260248201527f537472696e67733a20686578206c656e67746820696e73756666696369656e746044820152606401610898565b60408051600481526024810182526020810180516001600160e01b031663313ce56760e01b17905290516000918291829182916001600160a01b03871691611fa49161287e565b600060405180830381855afa9150503d8060008114611fdf576040519150601f19603f3d011682016040523d82523d6000602084013e611fe4565b606091505b5091509150818015611ff857506020815110155b1561202c576000818060200190518101906120139190612461565b905060ff811161202a576001969095509350505050565b505b5060009485945092505050565b60606118a5848460008585600080866001600160a01b03168587604051612060919061287e565b60006040518083038185875af1925050503d806000811461209d576040519150601f19603f3d011682016040523d82523d6000602084013e6120a2565b606091505b50915091506120b3878383876120be565b979650505050505050565b6060831561212d578251600003612126576001600160a01b0385163b6121265760405162461bcd60e51b815260206004820152601d60248201527f416464726573733a2063616c6c20746f206e6f6e2d636f6e74726163740000006044820152606401610898565b50816118a5565b6118a583838151156121425781518083602001fd5b8060405162461bcd60e51b815260040161089891906121aa565b60006020828403121561216e57600080fd5b81356001600160e01b0319811681146107e157600080fd5b60005b838110156121a1578181015183820152602001612189565b50506000910152565b60208152600082518060208401526121c9816040850160208701612186565b601f01601f19169190910160400192915050565b6000602082840312156121ef57600080fd5b5035919050565b6001600160a01b038116811461121357600080fd5b6000806040838503121561221e57600080fd5b8235612229816121f6565b946020939093013593505050565b60006020828403121561224957600080fd5b81356107e1816121f6565b60008060006060848603121561226957600080fd5b8335612274816121f6565b92506020840135612284816121f6565b929592945050506040919091013590565b600080604083850312156122a857600080fd5b8235915060208301356122ba816121f6565b809150509250929050565b634e487b7160e01b600052604160045260246000fd5b600082601f8301126122ec57600080fd5b813567ffffffffffffffff80821115612307576123076122c5565b604051601f8301601f19908116603f0116810190828211818310171561232f5761232f6122c5565b8160405283815286602085880101111561234857600080fd5b836020870160208301376000602085830101528094505050505092915050565b6000806000806080858703121561237e57600080fd5b8435612389816121f6565b9350602085013567ffffffffffffffff808211156123a657600080fd5b6123b2888389016122db565b945060408701359150808211156123c857600080fd5b506123d5878288016122db565b92505060608501356123e6816121f6565b939692955090935050565b60008060006060848603121561240657600080fd5b833592506020840135612418816121f6565b91506040840135612428816121f6565b809150509250925092565b6000806040838503121561244657600080fd5b8235612451816121f6565b915060208301356122ba816121f6565b60006020828403121561247357600080fd5b5051919050565b600181811c9082168061248e57607f821691505b6020821081036124ae57634e487b7160e01b600052602260045260246000fd5b50919050565b634e487b7160e01b600052601160045260246000fd5b60ff8181168382160190811115610666576106666124b4565b80820180821115610666576106666124b4565b81810381811115610666576106666124b4565b8082028115828204841417610666576106666124b4565b634e487b7160e01b600052601260045260246000fd5b60008261255357634e487b7160e01b600052601260045260246000fd5b500490565b600181815b80851115612593578160001904821115612579576125796124b4565b8085161561258657918102915b93841c939080029061255d565b509250929050565b6000826125aa57506001610666565b816125b757506000610666565b81600181146125cd57600281146125d7576125f3565b6001915050610666565b60ff8411156125e8576125e86124b4565b50506001821b610666565b5060208310610133831016604e8410600b8410161715612616575081810a610666565b6126208383612558565b8060001904821115612634576126346124b4565b029392505050565b60006107e160ff84168361259b565b6020808252602b908201527f496e697469616c697a61626c653a20636f6e7472616374206973206e6f74206960408201526a6e697469616c697a696e6760a81b606082015260800190565b634e487b7160e01b600052602160045260246000fd5b7f416363657373436f6e74726f6c3a206163636f756e74200000000000000000008152600083516126e4816017850160208801612186565b7001034b99036b4b9b9b4b733903937b6329607d1b6017918401918201528351612715816028840160208801612186565b01602801949350505050565b601f82111561080d57600081815260208120601f850160051c810160208610156127485750805b601f850160051c820191505b8181101561276757828155600101612754565b505050505050565b815167ffffffffffffffff811115612789576127896122c5565b61279d81612797845461247a565b84612721565b602080601f8311600181146127d257600084156127ba5750858301515b600019600386901b1c1916600185901b178555612767565b600085815260208120601f198616915b82811015612801578886015182559484019460019091019084016127e2565b508582101561281f5787850151600019600388901b60f8161c191681555b5050505050600190811b01905550565b60006020828403121561284157600080fd5b815180151581146107e157600080fd5b634e487b7160e01b600052603260045260246000fd5b600081612876576128766124b4565b506000190190565b60008251612890818460208701612186565b919091019291505056feb165298935924f540e4181c03493a5d686c54a0aaeb3f6216de85b7ffbba773859abfac6520ec36a6556b2a4dd949cc40007459bcd5cd2507f1e5cc77b6bc97ea26469706673582212204f4399b868b79cd5ad177a1bba28c1ef250157c4a3833f9db73043c4e863406a64736f6c63430008120033",
  "linkReferences": {},
  "deployedLinkReferences": {}
}